:0600000000F0B6EF1CF059
:1037FC00FFFFFFFF016E01C04AF01200FFFFFFFF49
:10380C00C5CF01F01F0E0116D8B4C7B4F9D71200FA
:10381C00FFFFFFFF93949386D1EC1DF0320E3DEC2D
:10382C001CF01200FFFFFFFF680EFFEC1BF096EC84
:10383C001CF0320E3DEC1CF01200FFFFFFFF016E7E
:10384C0001C06FFF6E50E00B0118D8B41200FFFFDF
:10385C00F9D7FFFFFFFF236E6B0E176E060E186E67
:10386C0023C019F04A5005EC1EF01200FFFFFFFFB9
:10387C00026E0A0E016EBE0EE82EFED7012EFCD78C
:10388C0000D0022EF6D71200FFFFFFFF166E13C0FA
:10389C0007F0010E086E15C00AF014C009F016509E
:1038AC000FEC1FF01200FFFFFFFF0C6E0AC004F0BC
:1038BC00010E056E000E076E0B0E066E0C503EECE4
:1038CC001DF01200FFFFFFFF216E6B0E176E020E34
:1038DC00186E030E196E21C01AF04A50CAEC1EF075
:1038EC001200FFFFFFFF216E1C0E176E040E186EE8
:1038FC00020E196E21C01AF04A50CAEC1EF01200CA
:10390C00FFFFFFFF216E1B0E176E040E186E020ECA
:10391C00196E21C01AF04A50CAEC1EF01200FFFFBB
:10392C00FFFF010E69EC1CF0000E87EC1CF0000E82
:10393C0078EC1CF0000E30EC1CF01200FFFFFFFFC7
:10394C00026E3F0EC716000EC66E000EC56E0250FC
:10395C00C6120150C71294869488C68A1200FFFFC3
:10396C0000EE60F0360EEE6AE806FDE100EE31F096
:10397C002F0EEE6AE806FDE1000EF86E000144EF32
:10398C001EF0FFFF01500302F3CF05F0F4CF06F059
:10399C0001500402F350062602500302F35006268F
:1039AC0005C001F006C002F01200FFFFFFFF000E81
:1039BC00066E0A0E056E8A801DEC1DF08A901DECB9
:1039CC001DF00506D8A0060606500510D8B4120046
:1039DC00FFFFF1D7FFFFFFFFC6CF01F00F0E01165F
:1039EC000150080AD8B407D0C6CF01F00F0E01164B
:1039FC0001500B0AD8B4C586C7A0FED7C950120017
:103A0C00FFFFFFFF949C948E000E026E400E016E21
:103A1C003C0E6DEC1DF0800E016E080EA5EC1CF03A
:103A2C000B0EC86E320E3DEC1CF01200FFFFFFFFB8
:103A3C00000E026E000E016E0250800A6D0F880E91
:103A4C00D8B4015CD8B012D0000E046E000E036E18
:103A5C000450800A800F020ED8B4035CD8B003D097
:103A6C00034A042AF5D7014A022AE6D71200FFFFBF
:103A7C00FFFF086E05EC1CF0C580C5B0FED705EC49
:103A8C001CF0085008249DEC1DF005EC1CF00450B3
:103A9C009DEC1DF0000E096E0ED005EC1CF00950CB
:103AAC00010DF3500624D96EF4500720DA6EDF5066
:103ABC009DEC1DF0092A0550095CD8A0EED705EC49
:103ACC001CF0C584C5B4FED7010E1200FFFFFFFF2A
:103ADC00036E000EAC6E000EAB6E03B0AC8803A28E
:103AEC0002D0AC8CAB8C03B4AC8E03A602D0AB88EA
:103AFC0001D0AB8A03A802D0AC8401D0AC949E98C0
:103B0C0003AC02D09D8A01D09D9A9E9A03AE02D03E
:103B1C009D8801D09D9801C0AFFFAC8AAB8E949C60
:103B2C00948EACB8ACBE01D0948C1200FFFFFFFF9A
:103B3C00036E03C0C9FFC6BE2CD0C6CF02F00F0E59
:103B4C0002160250080AD8B40FD0C6CF02F00F0EDE
:103B5C00021602500B0AD8B407D0C6889EA6FED710
:103B6C00C7B417D0C75015D0C6CF02F00F0E02162F
:103B7C000250080AD8B408D0C6CF02F00F0E0216B5
:103B8C0002500B0AD8A405D0C7B0FED705EC1CF028
:103B9C00C5501200FFFFFFFF080E936E800E24EC41
:103BAC001CF0000E706EBA0E716E070E726E000E67
:103BBC00E8CF18FF000EE8CF19FF000EE8CF1CFF6E
:103BCC00000EE8CF1DFF000EE8CF01FF000EE8CF7E
:103BDC0005FF000EE8CF09FF000EE8CF0DFF000E29
:103BEC00E8CF11FF000EE8CF15FF000E606E000E3F
:103BFC00E8CF50FF000E24EC1CF01200FFFFFFFF7B
:103C0C00216E17C013F0000E156E220E146E21508B
:103C1C004BEC1CF0196612D018C01AF0010E1B6E7A
:103C2C001A2A02D0D8901B361A2EFCD71B50FF0A2A
:103C3C0022141C6E1C501F6E206A15D018C01AF06E
:103C4C00010E1B6E1C6A1A2A03D0D8901B361C3628
:103C5C001A2EFBD722501D6E1E6A1B501D101F6E94
:103C6C001C501E10206E1FC022F017C00AF022C07C
:103C7C000BF021505AEC1CF01200FFFFFFFF07EC79
:103C8C001DF019EC1CF00FEC1CF09390DCEC1CF00C
:103C9C00000E146E250E136E000E166E2F0E156E82
:103CAC00000E186E270E176E000E1A6E290E196E66
:103CBC00000E1C6E2B0E1B6E000E1E6E2D0E1D6E3E
:103CCC0086EC1FF0010E0001686F010E0001696F98
:103CDC003050800A800F0B0ED8B42F5CD8A004D0C3
:103CEC008A70020E0001696F85EC1EF07A0E246E4C
:103CFC00D40EE82EFED7242EFCD700D0C9D7FFFF58
:103D0C00000E056E010E046E04C001F005C002F039
:103D1C00050ED89001360236E82EFBD701C004F010
:103D2C0002C005F040CF01F001B6FCD704C001F091
:103D3C00E00E011601C042FF05C001F001C002F007
:103D4C00036A02C041FF080EE8CF45FF000168C0BE
:103D5C0046FF000169C047FF00016AC048FF00012F
:103D6C006BC049FF00016CC04AFF00016DC04BFFE6
:103D7C0000016EC04CFF00016FC04DFF080EE8CF74
:103D8C0040FF1200FFFFFFFFFFFF1E6E17C013F076
:103D9C00000E156E200E146E1E504BEC1CF000091C
:103DAC00D8B435D01950000818241B6E010E1B26F0
:103DBC0019C01CF0010E1D6E1C2A02D0D8901D36A5
:103DCC001C2EFCD7FF0E1D261B2A02D0D8901D36A8
:103DDC001B2EFCD71D501F6E1950000818241B6E8B
:103DEC00010E1B261B281C6E02D0D8901A361C2ED6
:103DFC00FCD71F501A161F50FF0A20161A502012FB
:103E0C0017C00AF020C00BF01E505AEC1CF0120028
:103E1C00FFFFFFFF116E000E126E05EC1CF0C5804B
:103E2C00C5B0FED705EC1CF0115011249DEC1DF013
:103E3C0005EC1CF007509DEC1DF005EC1CF0C58248
:103E4C00C5B2FED705EC1CF0D88011349DEC1DF0EA
:103E5C00000E126E3BD005EC1CF01250016E026A83
:103E6C0001BE0206000E046E010E036EC7EC1CF0C0
:103E7C0001500924D96E02500A20DA6EF1EC1CF0C4
:103E8C00DF6E12C00BF00C6A0BBE0C06FF0E0D6E33
:103E9C00FF0E0E6E08500F6E106A0D500F260E504E
:103EAC0010220C50101802E10B500F18D8A407D098
:103EBC0005EC1CF0C58AC588C5A807D0FDD705EC54
:103ECC001CF0C59AC588C5B8FED7122A08500B6ECF
:103EDC000C6A12C00DF00E6A0DBE0E060E50800A52
:103EEC000F6E0B500D5C0C50800A0F58D8A0B3D736
:103EFC0005EC1CF0C584C5B4FED712501200FFFFB0
:103F0C00FFFF3B0E076E0E0E086E000E0A6E4B0E78
:103F1C00096E4A500FEC1FF04C504BC01FF0206A3A
:103F2C001FC020F01F6A1F12000E201213C0D9FFF1
:103F3C0014C0DAFF1FC0DEFF20C0DDFF4E504DC0A5
:103F4C001FF0206A1FC020F01F6A1F12000E2012E3
:103F5C0015C0D9FF16C0DAFF1FC0DEFF20C0DDFF81
:103F6C0050504FC01FF0206A1FC020F01F6A1F1254
:103F7C00000E201217C0D9FF18C0DAFF1FC0DEFFD9
:103F8C0020C0DDFF545053C01FF0206A1FC020F02A
:103F9C001F6A1F12000E201219C0D9FF1AC0DAFFB7
:103FAC001FC0DEFF20C0DDFF565055C01FF0206A39
:103FBC001FC020F01F6A1F12000E20121BC0D9FF59
:103FCC001CC0DAFF1FC0DEFF20C0DDFF585057C0F9
:103FDC001FF0206A1FC020F01F6A1F12000E201253
:103FEC001DC0D9FF1EC0DAFF1FC0DEFF20C0DDFFE1
:043FFC001200FFFFB1
:020000040020DA
:08000000FFFFFFFFFFFFFFFF00
:020000040030CA
:04000000FF220E0EBF
:0800060080FF0FC00FE00F4066
:00000001FF
