:0600000000F0BEEF1CF051
:10380C00FFFFFFFF306E30C01AF01200FFFFFFFF0A
:10381C00C5CF30F01F0E3016D8B4C7B4F9D712008C
:10382C00FFFFFFFF93949386D7EC1DF0320E45EC0F
:10383C001CF01200FFFFFFFF680E07EC1CF09EEC63
:10384C001CF0320E45EC1CF01200FFFFFFFF306E37
:10385C0030C06FFF6E50E00B3018D8B41200FFFF71
:10386C00F9D7FFFFFFFF526E6B0E466E060E476ECA
:10387C0052C048F01A5046EC1EF01200FFFFFFFF3A
:10388C00316E0A0E306EBE0EE82EFED7302EFCD7EF
:10389C0000D0312EF6D71200FFFFFFFF456E42C05D
:1038AC0036F0010E376E44C039F043C038F0455045
:1038BC000FEC1FF01200FFFFFFFF3B6E39C033F01F
:1038CC00010E346E000E366E3A0E356E3B5044ECE3
:1038DC001DF01200FFFFFFFF506E6B0E466E020EC6
:1038EC00476E030E486E50C049F01A50CAEC1EF0D9
:1038FC001200FFFFFFFF506E1C0E466E040E476E4B
:10390C00020E486E50C049F01A50CAEC1EF012005C
:10391C00FFFFFFFF506E1B0E466E040E476E020E2D
:10392C00486E50C049F01A50CAEC1EF01200FFFF4E
:10393C00FFFF010E71EC1CF0000E8FEC1CF0000E62
:10394C0080EC1CF0000E38EC1CF01200FFFFFFFFA7
:10395C00316E3F0EC716000EC66E000EC56E31508E
:10396C00C6123050C71294869488C68A1200FFFF84
:10397C0000EE60F0360EEE6AE806FDE100EE01F0B6
:10398C002F0EEE6AE806FDE1000EF86E00010BEF5B
:10399C001EF0FFFF000E316E0C0E306EFF0E73EC3E
:1039AC001DF0800E306E080EADEC1CF0310EC86EA2
:1039BC00320E45EC1CF01200FFFFFFFF30503202BC
:1039CC00F3CF34F0F4CF35F030503302F3503526CA
:1039DC0031503202F350352634C030F035C031F05E
:1039EC001200FFFFFFFF000E356E0A0E346E8A8048
:1039FC0023EC1DF08A9023EC1DF03406D8A035067C
:103A0C0035503410D8B41200FFFFF1D7FFFFFFFF81
:103A1C00C6CF30F00F0E30163050080AD8B407D08D
:103A2C00C6CF30F00F0E301630500B0AD8B4C58606
:103A3C00C7A0FED7C9501200FFFFFFFF000E316E6A
:103A4C00000E306E3150800A6D0F880ED8B4305C89
:103A5C00D8B012D0000E336E000E326E3350800A86
:103A6C00800F020ED8B4325CD8B003D0324A332A5D
:103A7C00F5D7304A312AE6D71200FFFFFFFF376E29
:103A8C000DEC1CF0C580C5B0FED70DEC1CF037500A
:103A9C003724A3EC1DF00DEC1CF03350A3EC1DF0FF
:103AAC00000E386E0ED00DEC1CF03850010DF3509A
:103ABC003524D96EF4503620DA6EDF50A3EC1DF0AD
:103ACC00382A3450385CD8A0EED70DEC1CF0C584E5
:103ADC00C5B4FED7010E1200FFFFFFFF326E000EC1
:103AEC00AC6E000EAB6E32B0AC8832A202D0AC8C95
:103AFC00AB8C32B4AC8E32A602D0AB8801D0AB8A80
:103B0C0032A802D0AC8401D0AC949E9832AC02D0D6
:103B1C009D8A01D09D9A9E9A32AE02D09D8801D08A
:103B2C009D9830C0AFFFAC8AAB8E949C948EACB891
:103B3C00ACBE01D0948C1200FFFFFFFF326E32C07E
:103B4C00C9FFC6BE2CD0C6CF31F00F0E3116315086
:103B5C00080AD8B40FD0C6CF31F00F0E3116315041
:103B6C000B0AD8B407D0C6889EA6FED7C7B417D008
:103B7C00C75015D0C6CF31F00F0E31163150080A90
:103B8C00D8B408D0C6CF31F00F0E311631500B0A15
:103B9C00D8A405D0C7B0FED70DEC1CF0C550120050
:103BAC00FFFFFFFF080E936E800E2CEC1CF0430EF3
:103BBC00706EA10E716E010E716E000EE8CF18FFC3
:103BCC00000EE8CF19FF000EE8CF1CFF000EE8CF67
:103BDC001DFF000EE8CF01FF000EE8CF05FF000E21
:103BEC00E8CF09FF000EE8CF0DFF000EE8CF11FF64
:103BFC00000EE8CF15FF000E606E000EE8CF50FFF0
:103C0C00000E2CEC1CF01200FFFFFFFFCFEC1CF0A1
:103C1C0021EC1CF017EC1CF09390F8EC1CF0000E4F
:103C2C00436E530E426E000E456E5D0E446E000EDA
:103C3C00476E550E466E000E496E570E486E000EBE
:103C4C004B6E590E4A6E000E4D6E5B0E4C6E86EC32
:103C5C001FF0010E0001686F010E0001696F5E50CC
:103C6C00800A800F0B0ED8B45D5CD8A004D08A708B
:103C7C00020E0001696F85EC1EF023EC1DF0CFD70E
:103C8C00FFFF506E46C042F0000E446E510E436E64
:103C9C00505053EC1CF0486612D047C049F0010E4E
:103CAC004A6E492A02D0D8904A36492EFCD74A503F
:103CBC00FF0A51144B6E4B504E6E4F6A15D047C0D5
:103CCC0049F0010E4A6E4B6A492A03D0D8904A3605
:103CDC004B36492EFBD751504C6E4D6A4A504C1006
:103CEC004E6E4B504D104F6E4EC051F046C039F0D9
:103CFC0051C03AF0505062EC1CF01200FFFFFFFF75
:103D0C00000E346E010E336E33C030F034C031F01F
:103D1C00050ED89030363136E82EFBD730C033F054
:103D2C0031C034F040CF30F030B6FCD733C030F077
:103D3C00E00E301630C042FF34C030F030C031F0ED
:103D4C00326A31C041FF080EE8CF45FF000168C060
:103D5C0046FF000169C047FF00016AC048FF00012F
:103D6C006BC049FF00016CC04AFF00016DC04BFFE6
:103D7C0000016EC04CFF00016FC04DFF080EE8CF74
:103D8C0040FF1200FFFFFFFFFFFF4D6E46C042F0E9
:103D9C00000E446E4F0E436E4D5053EC1CF0000958
:103DAC00D8B435D04850000847244A6E010E4A2634
:103DBC0048C04BF0010E4C6E4B2A02D0D8904C36BA
:103DCC004B2EFCD7FF0E4C264A2A02D0D8904C36EC
:103DDC004A2EFCD74C504E6E4850000847244A6E71
:103DEC00010E4A264A284B6E02D0D89049364B2EEB
:103DFC00FCD74E5049164E50FF0A4F1649504F12E1
:103E0C0046C039F04FC03AF04D5062EC1CF0120035
:103E1C00FFFFFFFF406E000E416E0DEC1CF0C580E5
:103E2C00C5B0FED70DEC1CF040504024A3EC1DF0A7
:103E3C000DEC1CF03650A3EC1DF00DEC1CF0C58203
:103E4C00C5B2FED70DEC1CF0D8804034A3EC1DF0AD
:103E5C00000E416E3BD00DEC1CF04150306E316ABF
:103E6C0030BE3106000E336E010E326EE3EC1CF0E8
:103E7C0030503824D96E31503920DA6E0DEC1DF0EB
:103E8C00DF6E41C03AF03B6A3ABE3B06FF0E3C6E19
:103E9C00FF0E3D6E37503E6E3F6A3C503E263D5005
:103EAC003F223B503F1802E13A503E18D8A407D0AD
:103EBC000DEC1CF0C58AC588C5A807D0FDD70DEC44
:103ECC001CF0C59AC588C5B8FED7412A37503A6E42
:103EDC003B6A41C03CF03D6A3CBE3D063D50800A09
:103EEC003E6E3A503C5C3B50800A3E58D8A0B3D74B
:103EFC000DEC1CF0C584C5B4FED741501200FFFF79
:103F0C00FFFF3B0E366E0E0E376E000E396E1B0E1B
:103F1C00386E1A500FEC1FF01C501BC04EF04F6A3D
:103F2C004EC04FF04E6A4E12000E4F1242C0D9FFD7
:103F3C0043C0DAFF4EC0DEFF4FC0DDFF1E501DC078
:103F4C004EF04F6A4EC04FF04E6A4E12000E4F129A
:103F5C0044C0D9FF45C0DAFF4EC0DEFF4FC0DDFFC5
:103F6C0020501FC04EF04F6A4EC04FF04E6A4E129A
:103F7C00000E4F1246C0D9FF47C0DAFF4EC0DEFF1D
:103F8C004FC0DDFF245023C04EF04F6A4EC04FF09F
:103F9C004E6A4E12000E4F1248C0D9FF49C0DAFFCC
:103FAC004EC0DEFF4FC0DDFF265025C04EF04F6ADD
:103FBC004EC04FF04E6A4E12000E4F124AC0D9FF3F
:103FCC004BC0DAFF4EC0DEFF4FC0DDFF285027C0CC
:103FDC004EF04F6A4EC04FF04E6A4E12000E4F120A
:103FEC004CC0D9FF4DC0DAFF4EC0DEFF4FC0DDFF25
:043FFC001200FFFFB1
:020000040020DA
:08000000FFFFFFFFFFFFFFFF00
:020000040030CA
:04000000FF260E0EBB
:0800060080FF0FC00FE00F4066
:00000001FF
