:0600000000F020EF1CF0EF
:10383200FFFFFFFF016E01C040F01200FFFF00EE2C
:1038420030F01F0EEE6AE806FDE1000116EF1EF0F1
:10385200FFFFC5CF01F01F0E0116D8B4C7B4F9D7C8
:103862001200FFFFFFFF93949386E2EC1DF0320EED
:1038720061EC1CF01200FFFFFFFF680E1AEC1CF057
:10388200BAEC1CF0320E61EC1CF01200FFFFFFFFDD
:10389200016E01C06FFF6E50E00B0118D8B4120028
:1038A200FFFFF9D7FFFFFFFF236E6B0E176E060EA9
:1038B200186E23C019F040508BEC1EF01200FFFF6F
:1038C200FFFF026E0A0E016EBE0EE82EFED7012E1B
:1038D200FCD700D0022EF6D71200FFFFFFFF166EB4
:1038E20013C007F0010E086E15C00AF014C009F0EB
:1038F20016500FEC1FF01200FFFFFFFF0C6E0AC004
:1039020004F0010E056E000E076E0B0E066E0C50D3
:103912004FEC1DF01200FFFFFFFF216E6B0E176EC2
:10392200020E186E030E196E21C01AF04050CAEC36
:103932001EF01200FFFFFFFF216E1C0E176E040E19
:10394200186E020E196E21C01AF04050CAEC1EF019
:103952001200FFFFFFFF216E1B0E176E040E186E82
:10396200020E196E21C01AF04050CAEC1EF012006D
:10397200FFFFFFFF010E8DEC1CF0000EABEC1CF004
:10398200000E9CEC1CF0000E54EC1CF01200FFFF29
:10399200FFFF026E3F0EC716000EC66E000EC56E0A
:1039A2000250C6120150C71294869488C68A120029
:1039B200FFFFFFFF000E026E0C0E016EFF0E7EEC8B
:1039C2001DF0800E016E080EC9EC1CF0310EC86E9F
:1039D200320E61EC1CF01200FFFFFFFF01500302E8
:1039E200F3CF05F0F4CF06F001500402F35006269F
:1039F20002500302F350062605C001F006C002F091
:103A02001200FFFFFFFF000E066E0A0E056E8A808F
:103A12002EEC1DF08A902EEC1DF00506D8A00606AD
:103A220006500510D8B41200FFFFF1D7FFFFFFFFC9
:103A3200C6CF01F00F0E01160150080AD8B407D004
:103A4200C6CF01F00F0E011601500B0AD8B4C5867D
:103A5200C7A0FED7C9501200FFFFFFFF000E026E83
:103A6200000E016E0250800A6D0F880ED8B4015C00
:103A7200D8B012D0000E046E000E036E0450800AFD
:103A8200800F020ED8B4035CD8B003D0034A042AD4
:103A9200F5D7014A022AE6D71200FFFFFFFF086EA0
:103AA20029EC1CF0C580C5B0FED729EC1CF00850EB
:103AB2000824AEEC1DF029EC1CF00450AEEC1DF015
:103AC200000E096E0ED029EC1CF00950010DF350C6
:103AD2000624D96EF4500720DA6EDF50AEEC1DF0EA
:103AE200092A0550095CD8A0EED729EC1CF0C58440
:103AF200C5B4FED7010E1200FFFFFFFF036E000EDA
:103B0200AC6E000EAB6E03B0AC8803A202D0AC8CDC
:103B1200AB8C03B4AC8E03A602D0AB8801D0AB8AC7
:103B220003A802D0AC8401D0AC949E9803AC02D01E
:103B32009D8A01D09D9A9E9A03AE02D09D8801D0A3
:103B42009D9801C0AFFFAC8AAB8E949C948EACB8AA
:103B5200ACBE01D0948C1200FFFFFFFF036E03C0C6
:103B6200C9FFC6BE2CD0C6CF02F00F0E02160250FD
:103B7200080AD8B40FD0C6CF02F00F0E02160250B8
:103B82000B0AD8B407D0C6889EA6FED7C7B417D0F2
:103B9200C75015D0C6CF02F00F0E02160250080A07
:103BA200D8B408D0C6CF02F00F0E021602500B0A8C
:103BB200D8A405D0C7B0FED729EC1CF0C55012001E
:103BC200FFFFFFFF080E936E800E48EC1CF0430EC1
:103BD200706EA10E716E010E716E000EE8CF18FFAD
:103BE200000EE8CF19FF000EE8CF1CFF000EE8CF51
:103BF2001DFF000EE8CF01FF000EE8CF05FF000E0B
:103C0200E8CF09FF000EE8CF0DFF000EE8CF11FF4D
:103C1200000EE8CF15FF000E606E000EE8CF50FFD9
:103C2200000E48EC1CF01200FFFFFFFFDAEC1CF064
:103C32003DEC1CF033EC1CF0939003EC1DF0000EF5
:103C4200146E240E136E000E166E2E0E156E000EDE
:103C5200186E260E176E000E1A6E280E196E000EC2
:103C62001C6E2A0E1B6E000E1E6E2C0E1D6E86EC36
:103C72001FF0010E386E010E396E2F50800A800F30
:103C82000B0ED8B42E5CD8A003D08A70020E396E07
:103C92004EEC1EF02EEC1DF0D2D7FFFF000E056E8B
:103CA200010E046E04C001F005C002F0050ED890AA
:103CB20001360236E82EFBD701C004F002C005F03F
:103CC20040CF01F001B6FCD704C001F0E00E0116AE
:103CD20001C042FF05C001F001C002F0036A02C048
:103CE20041FF080EE8CF45FF38C046FF39C047FF05
:103CF2003AC048FF3BC049FF3CC04AFF3DC04BFFB2
:103D02003EC04CFF3FC04DFF080EE8CF40FF1200FF
:103D1200FFFFFFFFFFFF216E17C013F0000E156EAD
:103D2200220E146E21506FEC1CF0196612D018C0CE
:103D32001AF0010E1B6E1A2A02D0D8901B361A2EC8
:103D4200FCD71B50FF0A22141C6E1C501F6E206AE7
:103D520015D018C01AF0010E1B6E1C6A1A2A03D065
:103D6200D8901B361C361A2EFBD722501D6E1E6AA7
:103D72001B501D101F6E1C501E10206E1FC022F003
:103D820017C00AF022C00BF021507EEC1CF012008A
:103D9200FFFFFFFF1E6E17C013F0000E156E200E00
:103DA200146E1E506FEC1CF00009D8B435D01950B7
:103DB200000818241B6E010E1B2619C01CF0010EF0
:103DC2001D6E1C2A02D0D8901D361C2EFCD7FF0E69
:103DD2001D261B2A02D0D8901D361B2EFCD71D5043
:103DE2001F6E1950000818241B6E010E1B261B287B
:103DF2001C6E02D0D8901A361C2EFCD71F501A16F1
:103E02001F50FF0A20161A50201217C00AF020C0B5
:103E12000BF01E507EEC1CF01200FFFFFFFF116E34
:103E2200000E126E29EC1CF0C580C5B0FED729EC3D
:103E32001CF011501124AEEC1DF029EC1CF00750BF
:103E4200AEEC1DF029EC1CF0C582C5B2FED729EC00
:103E52001CF0D8801134AEEC1DF0000E126E3BD077
:103E620029EC1CF01250016E026A01BE0206000E1D
:103E7200046E010E036EEEEC1CF001500924D96EA3
:103E820002500A20DA6E18EC1DF0DF6E12C00BF041
:103E92000C6A0BBE0C06FF0E0D6EFF0E0E6E085066
:103EA2000F6E106A0D500F260E5010220C50101873
:103EB20002E10B500F18D8A407D029EC1CF0C58AD8
:103EC200C588C5A807D0FDD729EC1CF0C59AC588BE
:103ED200C5B8FED7122A08500B6E0C6A12C00DF03C
:103EE2000E6A0DBE0E060E50800A0F6E0B500D5C50
:103EF2000C50800A0F58D8A0B3D729EC1CF0C58407
:103F0200C5B4FED712501200FFFFFFFF3B0E076E33
:103F12000E0E086E000E0A6E410E096E40500FEC36
:103F22001FF0425041C01FF0206A1FC020F01F6ADC
:103F32001F12000E201213C0D9FF14C0DAFF1FC0D7
:103F4200DEFF20C0DDFF445043C01FF0206A1FC0C7
:103F520020F01F6A1F12000E201215C0D9FF16C0D2
:103F6200DAFF1FC0DEFF20C0DDFF465045C01FF054
:103F7200206A1FC020F01F6A1F12000E201217C0F5
:103F8200D9FF18C0DAFF1FC0DEFF20C0DDFF4A5094
:103F920049C01FF0206A1FC020F01F6A1F12000EC6
:103FA200201219C0D9FF1AC0DAFF1FC0DEFF20C0DD
:103FB200DDFF4C504BC01FF0206A1FC020F01F6A6B
:103FC2001F12000E20121BC0D9FF1CC0DAFF1FC037
:103FD200DEFF20C0DDFF4E504DC01FF0206A1FC023
:103FE20020F01F6A1F12000E20121DC0D9FF1EC032
:0E3FF200DAFF1FC0DEFF20C0DDFF1200FFFF60
:020000040020DA
:08000000FFFFFFFFFFFFFFFF00
:020000040030CA
:04000000FF260E0EBB
:0800060080FF0FC00FE00F4066
:00000001FF
