:0600000000F0A2EF1CF06D
:1037B400FFFFFFFF016E01C048F01200FFFFFFFF93
:1037C400C5CF01F01F0E0116D8B4C7B4F9D7120043
:1037D400FFFFFFFF93949386BDEC1DF0320E19ECAE
:1037E4001CF01200FFFFFFFF680EDBEC1BF072EC15
:1037F4001CF0320E19EC1CF01200FFFFFFFF016EEB
:1038040001C06FFF6E50E00B0118D8B41200FFFF27
:10381400F9D7FFFFFFFF236E6B0E176E060E186EAF
:1038240023C019F048502EEC1EF01200FFFFFFFFDA
:10383400026E0A0E016EBE0EE82EFED7012EFCD7D4
:1038440000D0022EF6D71200FFFFFFFF166E13C042
:1038540007F0010E086E15C00AF014C009F01650E6
:103864000FEC1FF01200FFFFFFFF0C6E0AC004F004
:10387400010E056E000E076E0B0E066E0C502AEC40
:103884001DF01200FFFFFFFF216E6B0E176E020E7C
:10389400186E030E196E21C01AF048506DEC1EF01C
:1038A4001200FFFFFFFF216E1C0E176E040E186E30
:1038B400020E196E21C01AF048506DEC1EF0120071
:1038C400FFFFFFFF216E1B0E176E040E186E020E13
:1038D400196E21C01AF048506DEC1EF01200FFFF63
:1038E400FFFF010E45EC1CF0000E63EC1CF0000E13
:1038F40054EC1CF0000E0CEC1CF01200FFFFFFFF58
:1039040002C003F003C004F0056A04505E6E01C0F7
:103914005FF0000E026E5E0E016E1200FFFFFFFFED
:10392400026E3F0EC716000EC66E000EC56E025024
:10393400C6120150C71294869488C68A1200FFFFEB
:1039440000EE60F03A0EEE6AE806FDE100EE33F0B8
:103954002D0EEE6AE806FDE1000EF86E0001B2EFEE
:103964001EF0FFFF01500302F3CF05F0F4CF06F081
:1039740001500402F350062602500302F3500626B7
:1039840005C001F006C002F01200FFFFFFFF000EA9
:10399400066E0A0E056E8A8009EC1DF08A9009EC09
:1039A4001DF00506D8A0060606500510D8B412006E
:1039B400FFFFF1D7FFFFFFFFC6CF01F00F0E011687
:1039C4000150080AD8B407D0C6CF01F00F0E011673
:1039D40001500B0AD8B4C586C7A0FED7C95012003F
:1039E400FFFFFFFF949C948E000E026E400E016E4A
:1039F4003C0E59EC1DF0800E016E080E91EC1CF08B
:103A04000B0EC86E320E19EC1CF01200FFFFFFFF04
:103A1400000E026E000E016E0250800A6D0F880EB9
:103A2400D8B4015CD8B012D0000E046E000E036E40
:103A34000450800A800F020ED8B4035CD8B003D0BF
:103A4400034A042AF5D7014A022AE6D71200FFFFE7
:103A5400FFFF086EE1EC1BF0C580C5B0FED7E1ECBA
:103A64001BF00850082489EC1DF0E1EC1BF0045015
:103A740089EC1DF0000E096E0ED0E1EC1BF009502C
:103A8400010DF3500624D96EF4500720DA6EDF508E
:103A940089EC1DF0092A0550095CD8A0EED7E1ECA9
:103AA4001BF0C584C5B4FED7010E1200FFFFFFFF53
:103AB400036E000EAC6E000EAB6E03B0AC8803A2B6
:103AC40002D0AC8CAB8C03B4AC8E03A602D0AB8812
:103AD40001D0AB8A03A802D0AC8401D0AC949E98E8
:103AE40003AC02D09D8A01D09D9A9E9A03AE02D067
:103AF4009D8801D09D9801C0AFFFAC8AAB8E949C89
:103B0400948EACB8ACBE01D0948C1200FFFFFFFFC2
:103B1400036E03C0C9FFC6BE2CD0C6CF02F00F0E81
:103B240002160250080AD8B40FD0C6CF02F00F0E06
:103B3400021602500B0AD8B407D0C6889EA6FED738
:103B4400C7B417D0C75015D0C6CF02F00F0E021657
:103B54000250080AD8B408D0C6CF02F00F0E0216DD
:103B640002500B0AD8A405D0C7B0FED7E1EC1BF075
:103B7400C5501200FFFFFFFF080E936E800E00EC8D
:103B84001CF0000E706EBA0E716E070E726E000E8F
:103B9400E8CF18FF000EE8CF19FF000EE8CF1CFF96
:103BA400000EE8CF1DFF000EE8CF01FF000EE8CFA6
:103BB40005FF000EE8CF09FF000EE8CF0DFF000E51
:103BC400E8CF11FF000EE8CF15FF000E606E000E67
:103BD400E8CF50FF000E00EC1CF01200FFFFFFFFC7
:103BE400000E056E010E046E04C001F005C002F063
:103BF400050ED89001360236E82EFBD701C004F03A
:103C040002C005F040CF01F001B6FCD704C001F0BA
:103C1400E00E011601C042FF05C001F001C002F030
:103C2400036A02C041FF080EE8CF45FF33C046FFD8
:103C340034C047FF35C048FF36C049FF37C04AFF8C
:103C440038C04BFF39C04CFF3AC04DFF080EE8CFD7
:103C540040FF1200FFFFFFFFFFFF216E17C013F0AC
:103C6400000E156E220E146E215027EC1CF01966FE
:103C740012D018C01AF0010E1B6E1A2A02D0D89066
:103C84001B361A2EFCD71B50FF0A22141C6E1C5024
:103C94001F6E206A15D018C01AF0010E1B6E1C6A24
:103CA4001A2A03D0D8901B361C361A2EFBD7225062
:103CB4001D6E1E6A1B501D101F6E1C501E10206EA0
:103CC4001FC022F017C00AF022C00BF0215036ECBE
:103CD4001CF01200FFFFFFFF1E6E17C013F0000E52
:103CE400156E200E146E1E5027EC1CF00009D8B47B
:103CF40035D01950000818241B6E010E1B2619C05C
:103D04001CF0010E1D6E1C2A02D0D8901D361C2EEC
:103D1400FCD7FF0E1D261B2A02D0D8901D361B2E61
:103D2400FCD71D501F6E1950000818241B6E010E7D
:103D34001B261B281C6E02D0D8901A361C2EFCD7CA
:103D44001F501A161F50FF0A20161A50201217C0AF
:103D54000AF020C00BF01E5036EC1CF01200FFFFDE
:103D6400FFFFF3EC1CF0F5EC1BF0EBEC1BF0939075
:103D7400C8EC1CF0000E146E250E136E000E166EA9
:103D8400310E156E000E186E270E176E000E1A6E89
:103D9400290E196E000E1C6E2B0E1B6E000E1E6E6D
:103DA4002D0E1D6E86EC1FF0010E336E32BE02D056
:103DB400010E01D0020E346E31C001F032C002F0A7
:103DC40081EC1CF001C0D9FF02C0DAFFDF502F6E76
:103DD40031C001F032C002F081EC1CF0010E01246C
:103DE400D96E000E0220DA6EDF50306E2FC035F02F
:103DF40030C036F03250800A800F0B0ED8B4315CDC
:103E0400D8B08A70F1EC1DF07A0E246ED40EE82E30
:103E1400FED7242EFCD700D0ADD7FFFF116E000EC5
:103E2400126EE1EC1BF0C580C5B0FED7E1EC1BF0CF
:103E34001150112489EC1DF0E1EC1BF0075089ECC2
:103E44001DF0E1EC1BF0C582C5B2FED7E1EC1BF01E
:103E5400D880113489EC1DF0000E126E3BD0E1ECD9
:103E64001BF01250016E026A01BE0206000E046EBF
:103E7400010E036EB3EC1CF001500924D96E0250FC
:103E84000A20DA6EDDEC1CF0DF6E12C00BF00C6A57
:103E94000BBE0C06FF0E0D6EFF0E0E6E08500F6E5D
:103EA400106A0D500F260E5010220C50101802E10B
:103EB4000B500F18D8A407D0E1EC1BF0C58AC588B5
:103EC400C5A807D0FDD7E1EC1BF0C59AC588C5B8D5
:103ED400FED7122A08500B6E0C6A12C00DF00E6A3F
:103EE4000DBE0E060E50800A0F6E0B500D5C0C506A
:103EF400800A0F58D8A0B3D7E1EC1BF0C584C5B431
:103F0400FED712501200FFFFFFFF3B0E076E0E0E8E
:103F1400086E000E0A6E490E096E48500FEC1FF031
:103F24004A5049C01FF0206A1FC020F01F6A1F12A8
:103F3400000E201213C0D9FF14C0DAFF1FC0DEFF29
:103F440020C0DDFF4C504BC01FF0206A1FC020F082
:103F54001F6A1F12000E201215C0D9FF16C0DAFF07
:103F64001FC0DEFF20C0DDFF4E504DC01FF0206A91
:103F74001FC020F01F6A1F12000E201217C0D9FFA5
:103F840018C0DAFF1FC0DEFF20C0DDFF525051C051
:103F94001FF0206A1FC020F01F6A1F12000E20129B
:103FA40019C0D9FF1AC0DAFF1FC0DEFF20C0DDFF31
:103FB400545053C01FF0206A1FC020F01F6A1F1204
:103FC400000E20121BC0D9FF1CC0DAFF1FC0DEFF89
:103FD40020C0DDFF565055C01FF0206A1FC020F0DE
:103FE4001F6A1F12000E20121DC0D9FF1EC0DAFF67
:0C3FF4001FC0DEFF20C0DDFF1200FFFF39
:020000040020DA
:08000000FFFFFFFFFFFFFFFF00
:020000040030CA
:04000000FF220E0EBF
:0800060080FF0FC00FE00F4066
:00000001FF
