:0600000000F052EF1CF0BD
:10371200FFFFFFFF016E01C049F01200FFFFFFFF34
:10372200C5CF01F01F0E0116D8B4C7B4F9D71200E5
:10373200FFFFFFFF9394938681EC1DF0320EC8ECDD
:103742001BF01200FFFFFFFF680E8AEC1BF021EC5A
:103752001CF0320EC8EC1BF01200FFFFFFFF016EDF
:1037620001C06FFF6E50E00B0118D8B41200FFFFCA
:10377200F9D7FFFFFFFF236E6B0E176E060E186E52
:1037820023C019F04950B5EC1DF01200FFFFFFFFF6
:10379200026E0A0E016EBE0EE82EFED7012EFCD777
:1037A20000D0022EF6D71200FFFFFFFF166E13C0E5
:1037B20007F0010E086E15C00AF014C009F0165089
:1037C20079EC1EF01200FFFFFFFF0C6E0AC004F03E
:1037D200010E056E000E076E0B0E066E0C50EEEC1F
:1037E2001CF01200FFFFFFFF216E6B0E176E020E20
:1037F200186E030E196E21C01AF0495034EC1EF0F7
:103802001200FFFFFFFF216E1C0E176E040E186ED2
:10381200020E196E21C01AF0495034EC1EF012004B
:10382200FFFFFFFF216E1B0E176E040E186E020EB5
:10383200196E21C01AF0495034EC1EF01200FFFF3D
:10384200FFFF010EF4EC1BF0000E12EC1CF0000E58
:1038520003EC1CF0000EBBEC1BF01200FFFFFFFF9D
:103862001C0E176E040E186E020E196E000E1B6EE1
:103872004A0E1A6E4950F4EC1DF04A501200FFFF36
:10388200FFFF026E3F0EC716000EC66E000EC56E1B
:103892000250C6120150C71294869488C68A12003A
:1038A200FFFF00EE60F03C0EEE6AE806FDE100EE7E
:1038B20034F02B0EEE6AE806FDE1000EF86E000110
:1038C2006AEF1FF0FFFF02C003F003C004F0056AB5
:1038D200045000019A6F01C09BF00001000E026EBD
:1038E20000019A0E016E1200FFFFFFFF015003025A
:1038F200F3CF05F0F4CF06F001500402F350062690
:1039020002500302F350062605C001F006C002F081
:103912001200FFFFFFFF000E066E0A0E056E8A8080
:10392200CDEC1CF08A90CDEC1CF00506D8A0060662
:1039320006500510D8B41200FFFFF1D7FFFFFFFFBA
:10394200949C948E000E026E810E016E3C0E1DEC54
:103952001DF0800E016E080E41EC1CF00B0EC86EBD
:10396200320EC8EC1BF01200FFFFFFFFC6CF01F0C2
:103972000F0E01160150080AD8B407D0C6CF01F0C5
:103982000F0E011601500B0AD8B4C586C7A0FED788
:10399200C9501200FFFFFFFFFFFF000E026E000E74
:1039A200016E0250800A6D0F880ED8B4015CD8B047
:1039B20012D0000E046E000E036E0450800A800FB7
:1039C200020ED8B4035CD8B003D0034A042AF5D758
:1039D200014A022AE6D71200FFFFFFFF086E90ECB1
:1039E2001BF0C580C5B0FED790EC1BF00850082430
:1039F2004DEC1DF090EC1BF004504DEC1DF0000E50
:103A0200096E0ED090EC1BF00950010DF350062404
:103A1200D96EF4500720DA6EDF504DEC1DF0092A02
:103A22000550095CD8A0EED790EC1BF0C584C5B454
:103A3200FED7010E1200FFFFFFFF036E000EAC6EF9
:103A4200000EAB6E03B0AC8803A202D0AC8CAB8C80
:103A520003B4AC8E03A602D0AB8801D0AB8A03A814
:103A620002D0AC8401D0AC949E9803AC02D09D8A63
:103A720001D09D9A9E9A03AE02D09D8801D09D9856
:103A820001C0AFFFAC8AAB8E949C948EACB8ACBE36
:103A920001D0948C1200FFFFFFFF036E03C0C9FF29
:103AA200C6BE2CD0C6CF02F00F0E02160250080A74
:103AB200D8B40FD0C6CF02F00F0E021602500B0A76
:103AC200D8B407D0C6889EA6FED7C7B417D0C750B1
:103AD20015D0C6CF02F00F0E02160250080AD8B453
:103AE20008D0C6CF02F00F0E021602500B0AD8A45D
:103AF20005D0C7B0FED790EC1BF0C5501200FFFFF7
:103B0200FFFF080E936E800EAFEC1BF0000E706E7E
:103B1200BA0E716E070E726E000EE8CF18FF000E1D
:103B2200E8CF19FF000EE8CF1CFF000EE8CF1DFF03
:103B3200000EE8CF01FF000EE8CF05FF000EE8CF30
:103B420009FF000EE8CF0DFF000EE8CF11FF000EB7
:103B5200E8CF15FF000E606E000EE8CF50FF000E9A
:103B6200AFEC1BF01200FFFFFFFF216E17C013F036
:103B7200000E156E220E146E2150D6EC1BF0196643
:103B820012D018C01AF0010E1B6E1A2A02D0D89059
:103B92001B361A2EFCD71B50FF0A22141C6E1C5017
:103BA2001F6E206A15D018C01AF0010E1B6E1C6A17
:103BB2001A2A03D0D8901B361C361A2EFBD7225055
:103BC2001D6E1E6A1B501D101F6E1C501E10206E93
:103BD2001FC022F017C00AF022C00BF02150E5EC02
:103BE2001BF01200FFFFFFFF206E17C013F0000E44
:103BF200156E220E146E2050D6EC1BF01F6E1F5055
:103C0200D8B42FD01950000818241C6E010E1C269F
:103C120019C01DF0010E1E6E1D2A02D0D8901E364C
:103C22001D2EFCD7FF0E1E261C2A02D0D8901E364F
:103C32001C2EFCD71E50216E21502216195000084E
:103C420018241C6E010E1C261C281D6E02D0D89052
:103C520022321D2EFCD71AC0D9FF1BC0DAFF22C0A8
:103C6200DFFF1200FFFFFFFF1E6E17C013F0000EF2
:103C7200156E200E146E1E50D6EC1BF00009D8B43F
:103C820035D01950000818241B6E010E1B2619C0CE
:103C92001CF0010E1D6E1C2A02D0D8901D361C2E5F
:103CA200FCD7FF0E1D261B2A02D0D8901D361B2ED4
:103CB200FCD71D501F6E1950000818241B6E010EF0
:103CC2001B261B281C6E02D0D8901A361C2EFCD73D
:103CD2001F501A161F50FF0A20161A50201217C022
:103CE2000AF020C00BF01E50E5EC1BF01200FFFFA3
:103CF200FFFF116E000E126E90EC1BF0C580C5B076
:103D0200FED790EC1BF0115011244DEC1DF090ECFD
:103D12001BF007504DEC1DF090EC1BF0C582C5B2B4
:103D2200FED790EC1BF0D88011344DEC1DF0000E44
:103D3200126E3BD090EC1BF01250016E026A01BE73
:103D42000206000E046E010E036E76EC1CF00150AA
:103D52000924D96E02500A20DA6EB6EC1CF0DF6E2E
:103D620012C00BF00C6A0BBE0C06FF0E0D6EFF0E9E
:103D72000E6E08500F6E106A0D500F260E50102254
:103D82000C50101802E10B500F18D8A407D090EC79
:103D92001BF0C58AC588C5A807D0FDD790EC1BF0DB
:103DA200C59AC588C5B8FED7122A08500B6E0C6A90
:103DB20012C00DF00E6A0DBE0E060E50800A0F6E76
:103DC2000B500D5C0C50800A0F58D8A0B3D790EC62
:103DD2001BF0C584C5B4FED712501200FFFFFFFFCF
:103DE2003B0E076E0E0E086E000E0A6E4A0E096E2C
:103DF200495079EC1EF04B504AC01FF0206A1FC098
:103E020020F01F6A1F12000E201213C0D9FF14C027
:103E1200DAFF1FC0DEFF20C0DDFF4D504CC01FF097
:103E2200206A1FC020F01F6A1F12000E201215C048
:103E3200D9FF16C0DAFF1FC0DEFF20C0DDFF4F50E2
:103E42004EC01FF0206A1FC020F01F6A1F12000E12
:103E5200201217C0D9FF18C0DAFF1FC0DEFF20C032
:103E6200DDFF535052C01FF0206A1FC020F01F6AAE
:103E72001F12000E201219C0D9FF1AC0DAFF1FC08C
:103E8200DEFF20C0DDFF555054C01FF0206A1FC066
:103E920020F01F6A1F12000E20121BC0D9FF1CC087
:103EA200DAFF1FC0DEFF20C0DDFF575056C01FF0F3
:103EB200206A1FC020F01F6A1F12000E20121DC0B0
:103EC200D9FF1EC0DAFF1FC0DEFF20C0DDFF1200D7
:103ED200FFFFFFFFA0EC1CF0A4EC1BF09AEC1BF020
:103EE20093908BEC1CF0000E146E2C0E136E000ED1
:103EF200166E300E156E000E186E2E0E176E000E18
:103F02001A6E250E196E000E1C6E270E1B6E000E09
:103F12001E6E290E1D6EF0EC1EF030EC1CF02B6EA6
:103F2200010E346E2BC035F02CC001F02DC002F012
:103F320063EC1CF001C0D9FF02C0DAFFDF50326E21
:103F42002CC001F02DC002F063EC1CF0010E012424
:103F5200D96E000E0220DA6EDF50336E32C036F0B8
:103F620033C037F030C001F031C002F063EC1CF016
:103F720001C0D9FF02C0DAFFDF50326E30C001F05B
:103F820031C002F063EC1CF0010E0124D96E000E68
:103F92000220DA6EDF50336E32C038F033C039F0AF
:103FA2002EC001F02FC002F063EC1CF001C0D9FF5B
:103FB20002C0DAFFDF50326E2EC001F02FC002F0D5
:103FC20063EC1CF0010E0124D96E000E0220DA6EA1
:103FD200DF50336E32C03AF033C03BF03150800ACA
:103FE200800F0B0ED8B4305CD8B08A707A0E246E73
:0E3FF200D40EE82EFED7242EFCD700D074D7B4
:020000040020DA
:08000000FFFFFFFFFFFFFFFF00
:020000040030CA
:04000000FF220E0EBF
:0800060080FF0FC00FE00F4066
:00000001FF
