:0600000000F001EF07F023
:100600000000803F72313FFE753E58633D951D3CB2
:10061000C5AE3A79213994803793A7355615340001
:10062000000000803FF0FFBEE2A93E8376BEAE2B05
:100630003E3CC3BDD2133D78D3BB0000FFFF98EC16
:1006400006F0B5EC07F0C0EC07F09390C4EC06F0B0
:10065000000E146E2C0E136E000E166E300E156EFC
:10066000000E186E2E0E176E000E1A6E250E196EE5
:10067000000E1C6E270E1B6E000E1E6E290E1D6EC8
:10068000B7EC03F023EC07F02B6E010E0001686F4E
:100690002BC069F02CC001F02DC002F0EEEC06F08A
:1006A00001C0D9FF02C0DAFFDF50326E2CC001F06A
:1006B0002DC002F0EEEC06F0010E0124D96E000E02
:1006C0000220DA6EDF50336E32C06AF033C06BF056
:1006D00030C001F031C002F0EEEC06F001C0D9FFED
:1006E00002C0DAFFDF50326E30C001F031C002F0DC
:1006F000EEEC06F0010E0124D96E000E0220DA6E37
:10070000DF50336E32C06CF033C06DF02EC001F09C
:100710002FC002F0EEEC06F001C0D9FF02C0DAFFF4
:10072000DF50326E2EC001F02FC002F0EEEC06F06A
:10073000010E0124D96E000E0220DA6EDF50336EF6
:1007400032C06EF033C06FF0EDEC04F03150800A2F
:10075000800F0B0ED8B4305CD8B08A707A0E246E3D
:10076000D40EE82EFED7242EFCD700D071D7FFFF81
:100770003B0E076E0E0E086E000E0A6E4D0E096ED1
:100780004C5031EC04F04E504DC01FF0206A1FC099
:1007900020F01F6A1F12000E201213C0D9FF14C0D0
:1007A000DAFF1FC0DEFF20C0DDFF50504FC01FF03A
:1007B000206A1FC020F01F6A1F12000E201215C0F1
:1007C000D9FF16C0DAFF1FC0DEFF20C0DDFF525088
:1007D00051C01FF0206A1FC020F01F6A1F12000EB8
:1007E000201217C0D9FF18C0DAFF1FC0DEFF20C0DB
:1007F000DDFF565055C01FF0206A1FC020F01F6A51
:100800001F12000E201219C0D9FF1AC0DAFF1FC034
:10081000DEFF20C0DDFF585057C01FF0206A1FC008
:1008200020F01F6A1F12000E20121BC0D9FF1CC02F
:10083000DAFF1FC0DEFF20C0DDFF5A5059C01FF095
:10084000206A1FC020F01F6A1F12000E20121DC058
:10085000D9FF1EC0DAFF1FC0DEFF20C0DDFF12007F
:10086000FFFFFFFF116E000E126ECAEC07F0C5808D
:10087000C5B0FED7CAEC07F011501124E4EC05F026
:10088000CAEC07F00750E4EC05F0CAEC07F0C582AB
:10089000C5B2FED7CAEC07F0D8801134E4EC05F0FD
:1008A000000E126E3BD0CAEC07F01250016E026AC5
:1008B00001BE0206000E046E010E036ED9EC06F0B6
:1008C00001500924D96E02500A20DA6EAEEC06F00F
:1008D000DF6E12C00BF00C6A0BBE0C06FF0E0D6E25
:1008E000FF0E0E6E08500F6E106A0D500F260E5040
:1008F00010220C50101802E10B500F18D8A407D08A
:10090000CAEC07F0C58AC588C5A807D0FDD7CAECD0
:1009100007F0C59AC588C5B8FED7122A08500B6ED5
:100920000C6A12C00DF00E6A0DBE0E060E50800A43
:100930000F6E0B500D5C0C50800A0F58D8A0B3D727
:10094000CAEC07F0C584C5B4FED712501200FFFFF1
:10095000FFFF1E6E17C013F0000E156E200E146EF2
:100960001E507FEC07F00009D8B435D019500008AC
:1009700018241B6E010E1B2619C01CF0010E1D6EE3
:100980001C2A02D0D8901D361C2EFCD7FF0E1D2627
:100990001B2A02D0D8901D361B2EFCD71D501F6E6F
:1009A0001950000818241B6E010E1B261B281C6EF4
:1009B00002D0D8901A361C2EFCD71F501A161F5082
:1009C000FF0A20161A50201217C00AF020C00BF0A0
:1009D0001E5070EC07F01200FFFFFFFF000E056EC7
:1009E000010E046E04C001F005C002F0050ED8909F
:1009F00001360236E82EFBD701C004F002C005F034
:100A000040CF01F001B6FCD704C001F0E00E0116A2
:100A100001C042FF05C001F001C002F0036A02C03C
:100A200041FF080EE8CF45FF000168C046FF000106
:100A300069C047FF00016AC048FF00016BC049FF61
:100A400000016CC04AFF00016DC04BFF00016EC089
:100A50004CFF00016FC04DFF080EE8CF40FF1200B1
:100A6000FFFFFFFF206E17C013F0000E156E220E61
:100A7000146E20507FEC07F01F6E1F50D8B42FD09B
:100A80001950000818241C6E010E1C2619C01DF0F8
:100A9000010E1E6E1D2A02D0D8901E361D2EFCD7C8
:100AA000FF0E1E261C2A02D0D8901E361C2EFCD704
:100AB0001E50216E215022161950000818241C6E59
:100AC000010E1C261C281D6E02D0D89022321D2E2D
:100AD000FCD71AC0D9FF1BC0DAFF22C0DFFF12000B
:100AE000FFFFFFFF216E17C013F0000E156E220EE0
:100AF000146E21507FEC07F0196612D018C01AF05E
:100B0000010E1B6E1A2A02D0D8901B361A2EFCD763
:100B10001B50FF0A22141C6E1C501F6E206A15D039
:100B200018C01AF0010E1B6E1C6A1A2A03D0D89046
:100B30001B361C361A2EFBD722501D6E1E6A1B5008
:100B40001D101F6E1C501E10206E1FC022F017C0FB
:100B50000AF022C00BF0215070EC07F01200FFFFEA
:100B6000FFFF080E936E800EA9EC07F0000E706E6A
:100B7000BA0E716E070E726E000EE8CF18FF000EEF
:100B8000E8CF19FF000EE8CF1CFF000EE8CF1DFFD5
:100B9000000EE8CF01FF000EE8CF05FF000EE8CF02
:100BA00009FF000EE8CF0DFF000EE8CF11FF000E89
:100BB000E8CF15FF000E606E000EE8CF50FF000E6C
:100BC000A9EC07F01200FFFFFFFF036E03C0C9FF8F
:100BD000C6BE2CD0C6CF02F00F0E02160250080A75
:100BE000D8B40FD0C6CF02F00F0E021602500B0A77
:100BF000D8B407D0C6889EA6FED7C7B417D0C750B2
:100C000015D0C6CF02F00F0E02160250080AD8B453
:100C100008D0C6CF02F00F0E021602500B0AD8A45D
:100C200005D0C7B0FED7CAEC07F0C5501200FFFFD1
:100C3000FFFF036E000EAC6E000EAB6E03B0AC880F
:100C400003A202D0AC8CAB8C03B4AC8E03A602D052
:100C5000AB8801D0AB8A03A802D0AC8401D0AC949D
:100C60009E9803AC02D09D8A01D09D9A9E9A03AEB5
:100C700002D09D8801D09D9801C0AFFFAC8AAB8E99
:100C8000949C948EACB8ACBE01D0948C1200FFFF43
:100C9000FFFF086ECAEC07F0C580C5B0FED7CAECEE
:100CA00007F008500824E4EC05F0CAEC07F0045003
:100CB000E4EC05F0000E096E0ED0CAEC07F0095006
:100CC000010DF3500624D96EF4500720DA6EDF5080
:100CD000E4EC05F0092A0550095CD8A0EED7CAEC6F
:100CE00007F0C584C5B4FED7010E1200FFFFFFFF59
:100CF000000E026E000E016E0250800A6D0F880E0B
:100D0000D8B4015CD8B012D0000E046E000E036E91
:100D10000450800A800F020ED8B4035CD8B003D010
:100D2000034A042AF5D7014A022AE6D71200FFFF38
:100D3000FFFF949C948E000E026E810E016E3C0E9D
:100D400018EC06F0800E016E080E12EC07F00B0E88
:100D5000C86E320E8EEC07F01200FFFFFFFFC6CF09
:100D600001F00F0E01160150080AD8B407D0C6CF03
:100D700001F00F0E011601500B0AD8B4C586C7A0AA
:100D8000FED7C9501200FFFFFFFF000E066E0A0ECD
:100D9000056E8A8077EC06F08A9077EC06F00506FF
:100DA000D8A0060606500510D8B41200FFFFF1D7F0
:100DB000FFFFFFFF01500302F3CF05F0F4CF06F071
:100DC00001500402F350062602500302F350062697
:100DD00005C001F006C002F01200FFFFFFFF02C0D5
:100DE00003F003C004F0056A04500001DA6F01C08B
:100DF000DBF00001000E026E0001DA0E016E12003F
:100E0000FFFF00EE60F07C0EEE6AE806FDE100EE0A
:100E100034F02B0EEE6AE806FDE1000EF86E0001DC
:100E20001EEF03F0FFFF026E3F0EC716000EC66EE8
:100E3000000EC56E0250C6120150C71294869488E7
:100E4000C68A1200FFFFFFFF1C0E176E040E186EFD
:100E5000020E196E000E1B6E4D0E1A6E4C5031ECC8
:100E600005F04D501200FFFFFFFF010E61EC07F08F
:100E7000000E43EC07F0000E52EC07F0000E9CEC65
:100E800007F01200FFFFFFFF216E1B0E176E040E0E
:100E9000186E020E196E21C01AF04C50A8EC04F026
:100EA0001200FFFFFFFF216E1C0E176E040E186E5E
:100EB000020E196E21C01AF04C50A8EC04F012007A
:100EC000FFFFFFFF216E6B0E176E020E186E030EF2
:100ED000196E21C01AF04C50A8EC04F01200FFFF6C
:100EE000FFFF0C6E0AC004F0010E056E000E076EC7
:100EF0000B0E066E0C5048EC06F01200FFFFFFFFD1
:100F0000166E13C007F0010E086E15C00AF014C06B
:100F100009F0165031EC04F01200FFFFFFFF026EE3
:100F20000A0E016EBE0EE82EFED7012EFCD700D0B1
:100F3000022EF6D71200FFFFFFFF236E6B0E176E17
:100F4000060E186E23C019F04C5071EC05F012001B
:100F5000FFFFFFFF016E01C06FFF6E50E00B011835
:100F6000D8B41200FFFFF9D7FFFFFFFF680ED4ECE3
:100F700007F034EC07F0320E8EEC07F01200FFFFA2
:100F8000FFFF93949386B0EC05F0320E8EEC07F0E1
:100F90001200FFFFFFFFC5CF01F01F0E0116D8B4EE
:100FA000C7B4F9D71200FFFFFFFF016E01C04CF07C
:060FB0001200FFFFFFFF2D
:020000040020DA
:08000000FFFFFFFFFFFFFFFF00
:020000040030CA
:04000000FF220E0EBF
:0800060080FF0FC00FE00F4066
:00000001FF
