:0600000000F0ACEF11F06E
:100600000000803F72313FFE753E58633D951D3CB2
:10061000C5AE3A79213994803793A7355615340001
:10062000000000803FF0FFBEE2A93E8376BEAE2B05
:100630003E3CC3BDD2133D78D3BB0000FFFF9FC03B
:1006400013F0A0C014F0AA0E6EEC10F014501310AA
:10065000D8B476D3A1C013F0A2C014F0AC0E6EECE7
:1006600010F014501310D8B46BD3A3C013F0A4C06F
:1006700014F0AE0E6EEC10F014501310D8B460D31A
:10068000A5C013F0A6C014F0B00E6EEC10F014501C
:100690001310D8B455D3A7C013F0A8C014F0B20EED
:1006A0006EEC10F014501310D8B44AD3A9C013F054
:1006B000AAC014F0B40E6EEC10F014501310D8B49D
:1006C0003FD3B3C013F0B4C014F0B60E6EEC10F00C
:1006D00014501310D8B434D3B5C013F0B6C014F00E
:1006E000B80E6EEC10F014501310D8B429D3ABC070
:1006F00013F0ACC014F0BA0E6EEC10F014501310DE
:10070000D8B41ED3ADC013F0AEC014F0BC0E6EEC66
:1007100010F014501310D8B413D3AFC013F0B0C0FE
:1007200014F0BE0E6EEC10F014501310D8B408D3B1
:10073000000E5D6E700E5E6EC10E5F6E000E5A6E24
:10074000000E5B6E400E5C6E84EC08F05AC0F8F050
:100750005BC0F9F05CC0FAF0A3C009F0A4C00AF0D5
:1007600097EC10F009C01FF00AC020F00BC021F078
:10077000F8C01CF0F9C01DF0FAC01EF0EEEC0BF052
:100780001CC0E9F01DC0EAF01EC0EBF0E9C01CF08F
:10079000EAC01DF0EBC01EF0000E1F6E200E206E92
:1007A000430E216EEEEC0BF01CC0E0F01DC0E1F03A
:1007B0001EC0E2F0000E5D6E700E5E6EC10E5F6ECA
:1007C000000E5A6E000E5B6E400E5C6E84EC08F0FC
:1007D0005AC0F8F05BC0F9F05CC0FAF0000E5D6E34
:1007E000400E5E6EC00E5F6E000E5A6E200E5B6E87
:1007F000410E5C6E84EC08F05AC0F2F05BC0F3F07E
:100800005CC0F4F0F8C01FF0F9C020F0FAC021F08D
:10081000F2C01CF0F3C01DF0F4C01EF0EEEC0BF0C3
:100820001CC0F5F01DC0F6F01EC0F7F0F5C01CF0BE
:10083000F6C01DF0F7C01EF0A5C009F0A6C00AF072
:1008400084EC11F009C01FF00AC020F00BC021F0A9
:10085000EEEC0BF01CC0EFF01DC0F0F01EC0F1F08C
:10086000000E5D6EF00E5E6EC10E5F6E000E5A6E73
:10087000000E5B6E400E5C6E84EC08F05AC0F8F01F
:100880005BC0F9F05CC0FAF0000E5D6E000E5E6EAB
:10089000400E5F6E000E5A6E200E5B6E430E5C6E55
:1008A00084EC08F05AC0F2F05BC0F3F05CC0F4F0E6
:1008B000F8C01FF0F9C020F0FAC021F0F2C01CF01F
:1008C000F3C01DF0F4C01EF0EEEC0BF01CC0F5F010
:1008D0001DC0F6F01EC0F7F0F5C01CF0F6C01DF00C
:1008E000F7C01EF0B3C009F0B4C00AF097EC10F0E6
:1008F00009C01FF00AC020F00BC021F0EEEC0BF095
:100900001CC0E3F01DC0E4F01EC0E5F0000E5D6EFB
:10091000700E5E6EC10E5F6E000E5A6E000E5B6E44
:10092000400E5C6E84EC08F05AC0ECF05BC0EDF059
:100930005CC0EEF0000E106E200E116E430E126EB3
:10094000ECC00DF0EDC00EF0EEC00FF0D3EC0CF0EB
:100950000DC01CF00EC01DF00FC01EF0A7C009F0A6
:10096000A8C00AF084EC11F009C01FF00AC020F002
:100970000BC021F0EEEC0BF01CC078F01DC079F03C
:100980001EC07AF0A9C009F0AAC00AF084EC11F0E8
:1009900009C07BF00AC07CF00BC07DF0000E5D6EDC
:1009A000000E5E6E400E5F6E000E5A6E200E5B6E85
:1009B000430E5C6E84EC08F05AC0ECF05BC0EDF0C6
:1009C0005CC0EEF0000E5D6E300E5E6E410E5F6E2E
:1009D000000E5A6E000E5B6E400E5C6E84EC08F0EA
:1009E0005AC0E6F05BC0E7F05CC0E8F0ECC010F085
:1009F000EDC011F0EEC012F0E6C00DF0E7C00EF051
:100A0000E8C00FF0D3EC0CF00DC01CF00EC01DF0D0
:100A10000FC01EF0ADC009F0AEC00AF097EC10F0A8
:100A200009C01FF00AC020F00BC021F0EEEC0BF063
:100A30001CC07EF01DC07FF01EC080F0AFC009F06A
:100A4000B0C00AF097EC10F009C00DF00AC00EF02B
:100A50000BC00FF0000E106E200E116E430E126EC2
:100A6000D3EC0CF00DC081F00EC082F00FC083F00B
:100A70009FC009F0A0C00AF097EC10F009C08DF0FB
:100A80000AC08EF00BC08FF0000E5D6E500E5E6ED1
:100A9000C10E5F6E000E5A6E000E5B6E400E5C6EF5
:100AA00084EC08F05AC0F8F05BC0F9F05CC0FAF0D2
:100AB000A1C009F0A2C00AF097EC10F009C01FF025
:100AC0000AC020F00BC021F0F8C01CF0F9C01DF0E6
:100AD000FAC01EF0EEEC0BF01CC0E9F01DC0EAF00D
:100AE0001EC0EBF0E9C01CF0EAC01DF0EBC01EF028
:100AF000000E1F6E200E206E430E216EEEEC0BF0EA
:100B00001CC090F01DC091F01EC092F0000E5D6EF2
:100B1000C80E5E6EC10E5F6E000E5A6E000E5B6EEA
:100B2000400E5C6E84EC08F05AC0F8F05BC0F9F03F
:100B30005CC0FAF0000E5D6E000E5E6E400E5F6EE1
:100B4000000E5A6E200E5B6E430E5C6E84EC08F055
:100B50005AC0F2F05BC0F3F05CC0F4F0F8C01FF0D4
:100B6000F9C020F0FAC021F0F2C01CF0F3C01DF073
:100B7000F4C01EF0EEEC0BF01CC0F5F01DC0F6F05A
:100B80001EC0F7F0F5C01CF0F6C01DF0F7C01EF057
:100B9000B5C009F0B6C00AF097EC10F009C01FF01C
:100BA0000AC020F00BC021F0EEEC0BF01CC093F05B
:100BB0001DC094F01EC095F0000E5D6E700E5E6E4E
:100BC000410E5F6E000E5A6E000E5B6E400E5C6E44
:100BD00084EC08F05AC0F8F05BC0F9F05CC0FAF0A1
:100BE000F8C01CF0F9C01DF0FAC01EF0EFC01FF0F5
:100BF000F0C020F0F1C021F0EEEC0BF01CC096F03C
:100C00001DC097F01EC098F0EFC01CF0F0C01DF0A2
:100C1000F1C01EF0E0C01FF0E1C020F0E2C021F002
:100C2000EEEC0BF01CC099F01DC09AF01EC09BF0BA
:100C3000EFC01CF0F0C01DF0F1C01EF0E3C01FF0CB
:100C4000E4C020F0E5C021F0EEEC0BF01CC09CF0FD
:100C50001DC09DF01EC09EF0520E0001846F170E45
:100C60000001856F400E0001866F000E5D6EA00EC4
:100C70005E6EC10E5F6E000E5A6E000E5B6E400E11
:100C80005C6E84EC08F05AC0F8F05BC0F9F05CC010
:100C9000FAF0E80E1F6EE50E206E450E216EF8C0CC
:100CA0001CF0F9C01DF0FAC01EF0EEEC0BF01CC0F9
:100CB0002BF01DC02CF01EC02DF05AEC11F02BC0F3
:100CC0002EF02CC02FF02DC030F0000E316E800EB3
:100CD000326E3F0E336EACEC07F02EC087F02FC0A3
:100CE00088F030C089F0000E5D6E100E5E6EC20E90
:100CF0005F6E000E5A6E000E5B6E400E5C6E84ECF2
:100D000008F05AC0F8F05BC0F9F05CC0FAF0F8C027
:100D10001CF0F9C01DF0FAC01EF0570E1F6E940EA5
:100D2000206E480E216EEEEC0BF01CC08AF01DC048
:100D30008BF01EC08CF0000E0001DF6F010E04D09E
:100D4000000E0001DF6F000E0001DE6F1200FFFFDA
:100D5000FFFF7F0E4F144E104D10D8A406D0000E8A
:100D60004D6E800E4E6E3F0E33D0720E016E310E00
:100D7000026E440E036E4DC004F04EC005F04FC02D
:100D800006F09FEC0EF0D8B00CD0000E0101236FDE
:100D9000220E0101226FFF0E4D6E7F0E4E6E7F0EF2
:100DA00017D04DC001F04EC002F04FC003F0490E05
:100DB000046E3A0E056EC40E066E9FEC0EF0D8B0AF
:100DC00009D0000E0101236F220E0101226FA1D074
:100DD0004F6EC0D04F50800A800F05E1000E4E5C70
:100DE00002E1000E4D5CD8B002D0010E01D0000E21
:100DF000596E5950D8B40ED04DC02BF04EC02CF0C7
:100E00004FC02DF05AEC11F02BC04DF02CC04EF01D
:100E10002DC04FF04DC01CF04EC01DF04FC01EF055
:100E2000AA0E1F6EB80E206E3F0E216EEEEC0BF078
:100E30001CC04DF01DC04EF01EC04FF04DC03AF02A
:100E40004EC03BF04FC03CF081EC0AF03AC054F089
:100E50003BC055F03CC056F054C001F055C002F004
:100E600056C003F040EC0DF001C050F002C051F04C
:100E700003C052F004C053F050C057F051C058F0B6
:100E80004DC03AF04EC03BF04FC03CF057C009F0A7
:100E900058C00AF097EC10F009C03DF00AC03EF0CF
:100EA0000BC03FF0FCEC10F03AC04DF03BC04EF0F0
:100EB0003CC04FF04DC03AF04EC03BF04FC03CF04C
:100EC000060E3E6E010E3D6E000E406E090E3F6E28
:100ED00062EC0CF03AC046F03BC047F03CC048F032
:100EE00057C049F058C04AF079EC0BF046C04DF0BD
:100EF00047C04EF048C04FF05950D8B425D0FF0E2F
:100F00004D187F0ED8B44E187F0ED8B44F18D8A401
:100F100006D0000E4D6E000E4E6E000E59D7000E1C
:100F20000D6E800E0E6E3F0E0F6E4DC010F04EC057
:100F300011F04FC012F0D3EC0CF00DC04DF00EC00C
:100F40004EF00FC04FF006D04DC04DF04EC04EF0E9
:100F50004FC04FF01200FFFFFFFF30C034F0356A82
:100F6000366A2F34343601E335803450396E33C05D
:100F700034F0356A366A3234343601E33580345021
:100F8000386E3950D8B40CD03850395CD8B00FD046
:100F9000395000083824346E190E345CD8A007D0BC
:100FA00031C02EF032C02FF033C030F0ABD038500B
:100FB000D8B40CD03950385CD8B00FD038500008B5
:100FC0003924346E190E345CD8A007D02EC02EF010
:100FD0002FC02FF030C030F095D0060E376E30BEE7
:100FE000378E33BE378C2F8EFF0E2E16FF0E2F1628
:100FF000000E3016328EFF0E3116FF0E3216000E26
:1010000033163850395CD8B01AD0D89031363236D1
:101010003336380638503918D8B40DD0370637C0B3
:1010200034F0070E3416D8B406D0EFD7D89030324B
:101030002F322E32392A38503962F8D71DD0395024
:10104000385CD8B019D0D8902E362F3630363906C5
:1010500038503918D8B40DD0370637C034F0070EE1
:101060003416D8B406D0EFD7D8903332323231327A
:10107000382A38503962F8D737AE0CD0FF0E2E1A06
:10108000FF0E2F1AFF0E301A010E2E26000E2F22F1
:10109000000E302237AC0CD0FF0E311AFF0E321A80
:1010A000FF0E331A010E3126000E3222000E3322BB
:1010B000000E376E2E5031262F5032223050332200
:1010C00033AE0ED0FF0E311AFF0E321AFF0E331A56
:1010D000010E3126000E3222000E3322010E376E31
:1010E00031C001F032C002F033C003F039C004F067
:1010F00037C005F0ACEC0DF001C02EF002C02FF0AF
:1011000003C030F01200FFFFFFFF000E0001D96F97
:101110007F0E5C145B105A10D8A411D0000E016E23
:10112000000E026E000E036E5DC004F05EC005F09E
:101130005FC006F09FEC0EF0D8A042D03BD07F0EEF
:101140005F145E105D10D8A406D0000E5A6E800E9B
:101150005B6E3F0E3AD05C50800A800F05E1000EB6
:101160005B5C02E1000E5A5CD8B044D05DC001F077
:101170005EC002F05FC003F040EC0DF001C0DAF099
:1011800002C0DBF003C0DCF004C0DDF0DAC009F01F
:10119000DBC00AF0DCC00BF0DDC00CF00FEC10F08F
:1011A0005F500B1805E15E500A1802E15D50091806
:1011B000D8B40DD0000E0101236F210E0101226F62
:1011C000000E5A6E000E5B6E000E5C6E5CD000016D
:1011D000DA51010B0001D96F5AC02BF05BC02CF023
:1011E0005CC02DF05AEC11F02BC05AF02CC05BF013
:1011F0002DC05CF05AC046F05BC047F05CC048F0C0
:10120000ECEC09F046C0D3F047C0D4F048C0D5F0AC
:10121000D3C01CF0D4C01DF0D5C01EF05DC01FF0BF
:101220005EC020F05FC021F0EEEC0BF01CC0D6F0E9
:101230001DC0D7F01EC0D8F0D6C04DF0D7C04EF0BC
:10124000D8C04FF0A8EC06F04DC05AF04EC05BF08D
:101250004FC05CF00001D951D8B40FD05AC02BF068
:101260005BC02CF05CC02DF05AEC11F02BC05AF092
:101270002CC05BF02DC05CF006D05AC05AF05BC0A9
:101280005BF05CC05CF01200FFFFFFFF000E446EDD
:10129000000E436EF60E456EF60E076E020E086ED9
:1012A000000E0A6E450E096E770E02EC0BF0020A74
:1012B000D8A48CD0000E1F6E800E206E430E216EBF
:1012C000455098EC11F009C01CF00AC01DF00BC08D
:1012D0001EF0EEEC0BF01CC02EF01DC02FF01EC057
:1012E00030F0465098EC11F009C031F00AC032F0ED
:1012F0000BC033F0ACEC07F02EC03DF02FC03EF039
:1013000030C03FF0000E446E010E436E3DC031F020
:101310003EC032F03FC033F07BC02BF07CC02CF0DD
:101320007DC02DF05AEC11F02BC02EF02CC02FF008
:101330002DC030F0ACEC07F02EC01CF02FC01DF01B
:1013400030C01EF078C01FF079C020F07AC021F0C4
:10135000EEEC0BF01CC047F01DC048F01EC049F079
:1013600081C031F082C032F083C033F047C02EF02C
:1013700048C02FF049C030F0ACEC07F02EC010F0A0
:101380002FC011F030C012F07EC00DF07FC00EF003
:1013900080C00FF0D3EC0CF00DC040F00EC041F057
:1013A0000FC042F040C02EF041C02FF042C030F0DC
:1013B00047C031F048C032F049C033F0ACEC07F020
:1013C0002EC03AF02FC03BF030C03CF043C03AF0A2
:1013D00044C03BF01200FFFFFFFF4850800A800F1F
:1013E00005E1000E475C02E1000E465CD8B005D076
:1013F000000E0101236F210E0AD07F0E4814471002
:101400004610D8A40DD0000E0101236F220E010159
:10141000226F000E466E000E476E000E486E6FD0B3
:10142000000E1F6E000E206E400E216E000E056E27
:10143000490E046E46C001F047C002F048C003F0F8
:1014400054EC0EF001C01CF002C01DF003C01EF0F1
:10145000EEEC0BF01CC02EF01DC02FF01EC030F0C3
:10146000000E316E800E326EBF0E336EACEC07F0A4
:101470002EC046F02FC047F030C048F04906D8A033
:101480004A0646C03AF047C03BF048C03CF0060E62
:101490003E6E1F0E3D6E000E406E080E3F6E62ECFB
:1014A0000CF03AC046F03BC047F03CC048F0720E2A
:1014B0001F6E310E206E3F0E216E49C009F04AC0EA
:1014C0000AF097EC10F009C01CF00AC01DF00BC028
:1014D0001EF0EEEC0BF01CC02EF01DC02FF01EC055
:1014E00030F046C031F047C032F048C033F0ACECC9
:1014F00007F02EC046F02FC047F030C048F0120071
:10150000FFFFFFFF3AC001F03BC002F03CC003F018
:10151000000E056E400E046E54EC0EF04150800A31
:10152000F36E800EF35C000ED8B4405CD8B018D0D7
:101530003C50800A800F05E1000E3B5C02E1000E8A
:101540003A5CD8B006D0000E3A6E800E3B6EBF0EED
:1015500005D0000E3A6E000E3B6E000E3C6E50D071
:10156000150E405C000E4158D8A007D03AC03AF0A2
:101570003BC03BF03CC03CF043D03AC001F03BC024
:1015800002F03CC003F040EC0DF001C010F002C0CE
:1015900011F003C012F004C013F0E9EC0EF010C01B
:1015A0003DF011C03EF012C03FF03AC001F03BC028
:1015B00002F03CC003F03DC004F03EC005F03FC067
:1015C00006F09FEC0EF0D8B015D03DC02EF03EC016
:1015D0002FF03FC030F0000E316E800E326EBF0E25
:1015E000336EACEC07F02EC03AF02FC03BF030C0A9
:1015F0003CF006D03DC03AF03EC03BF03FC03CF06E
:101600001200FFFFFFFF116E000E126EF2EC11F0E0
:10161000C580C5B0FED7F2EC11F011501124ABEC2F
:101620000FF0F2EC11F00750ABEC0FF0F2EC11F010
:10163000C582C5B2FED7F2EC11F0D8801134ABEC04
:101640000FF0000E126E3BD0F2EC11F01250016E52
:10165000026A01BE0206000E046E010E036E6FECFC
:1016600011F001500924D96E02500A20DA6E2FECD5
:1016700011F0DF6E12C00BF00C6A0BBE0C06FF0EF1
:101680000D6EFF0E0E6E08500F6E106A0D500F2675
:101690000E5010220C50101802E10B500F18D8A455
:1016A00007D0F2EC11F0C58AC588C5A807D0FDD7D0
:1016B000F2EC11F0C59AC588C5B8FED7122A0850B9
:1016C0000B6E0C6A12C00DF00E6A0DBE0E060E50A7
:1016D000800A0F6E0B500D5C0C50800A0F58D8A07A
:1016E000B3D7F2EC11F0C584C5B4FED71250120086
:1016F000FFFFFFFF7F0E481447104610D8B425D0D7
:1017000048507F0B4B6E4C6AD8904B364C364B5042
:1017100049264C504A2247AE03D04B6A4B2A01D08F
:101720004B6A4B504926000E4A224A50800AF36EFB
:10173000800EF35C000ED8B4495CD8B00CD0000E1B
:101740000101236F220E0101226F000E466E000E72
:10175000476E000E24D04A50800A7F0F000ED8B486
:10176000495CD8A01ED0000E0101236F220E01019A
:10177000226F4850800A800F05E1000E475C02E1AD
:10178000000E465CD8B006D0FF0E466E7F0E476E48
:10179000FF0E05D0FF0E466E7F0E476E7F0E486E21
:1017A0001BD04A344A304C6E49304B6E48504B186F
:1017B000800B4B18486E49C04BF0010E4B164B3254
:1017C0004B3247504B187F0B4B18476E46C046F0C4
:1017D00047C047F048C048F01200FFFFFFFF1EC09F
:1017E00022F0236A246A1D34223601E3238022502A
:1017F000256E256601D00CD021C022F0236A246A10
:101800002034223601E3238022502A6E2A6607D034
:10181000000E1C6E000E1D6E000E1E6E51D02A5062
:101820007B0F25261EC02AF021502A1A800E2A1668
:101830001D8E208EFF0E1F16FF0E2016000E211685
:10184000000E266E000E276E000E286E070E296E03
:101850001CA006D01F5026262050272221502822C7
:10186000D8901E321D321C32D8901F3620362136B9
:10187000292EEED7090E296E1CA006D01F50262651
:101880002050272221502822D8901E321D321C328F
:10189000D890283227322632292EEED726C001F0E2
:1018A00027C002F028C003F025C004F02AC005F0CC
:1018B000ACEC0DF001C01CF002C01DF003C01EF026
:1018C0001200FFFFFFFF3FC001F040C002F0000E1A
:1018D000046E030E036E6FEC11F03DC041F03EC08C
:1018E00042F0015041260250422241C0F6FF42C060
:1018F000F7FF0900FFFFF5CF43F00900FFFFF5CF29
:1019000044F00A00FFFFF5CF45F041D043C01FF07F
:1019100044C020F045C021F03AC01CF03BC01DF08F
:101920003CC01EF0EEEC0BF01CC02EF01DC02FF0E2
:101930001EC030F0000E046E030E036E3F06D8A0EA
:1019400040063FC001F040C002F06FEC11F03DC016
:1019500041F03EC042F0015041260250422241C0B7
:10196000F6FF42C0F7FF0900FFFFF5CF31F0090095
:10197000FFFFF5CF32F00A00FFFFF5CF33F0ACECFC
:1019800007F02EC043F02FC044F030C045F0405067
:101990003F10D8A4BBD743C03AF044C03BF045C089
:1019A0003CF01200FFFFFFFF0FC013F0146A156A2E
:1019B0000E34133601E3148013501A6E1A6601D0E8
:1019C0000CD012C013F0146A156A1134133601E3F7
:1019D000148013501B6E1B6607D0000E0D6E000E98
:1019E0000E6E000E0F6E4AD0000E176E000E186EAF
:1019F000000E196E1B50890F1A5E0FC01BF012509B
:101A00001B1A800E1B160E8EFF0E0D16FF0E0E16E5
:101A1000000E0F16118EFF0E1016FF0E1116000E7F
:101A20001216180E166ED890173618361936105032
:101A30000D5C11500E5812500F58D8A007D01050FE
:101A40000D5E11500E5A12500F5A1780D8900D3655
:101A50000E360F36162EE7D717C001F018C002F069
:101A600019C003F01AC004F01BC005F0ACEC0DF077
:101A700001C00DF002C00EF003C00FF01200FFFF16
:101A8000FFFF03C005F0066A076A0234053601E36A
:101A9000068005500F6E0F6601D038D0170E056E08
:101AA00001C006F002C007F003C008F00528096E67
:101AB00004D0D890083207320632092EFAD70650E1
:101AC0000A6E028EFF0E0116FF0E0216000E03169E
:101AD00001500B6E02500C6E03500D6E0E6A8E0E8E
:101AE0000F5E0FAE10D00F50800A056EF10E800A07
:101AF000055CD8A00BD0D8900E320D320C320B32D0
:101B00000F3EF9D714D0170E0F640FD0000E016EE0
:101B1000000E026E000E036E000E046E1BD0D890F5
:101B20000B360C360D360E360F060F66F8D70A50F8
:101B3000D8B408D00E1E0D1E0C1E0B6C000E0C220D
:101B40000D220E220BC001F00CC002F00DC003F0FC
:101B50000EC004F01200FFFFFFFF0450D8B405D000
:101B6000015002100310D8A40CD0000E016E000E1C
:101B7000026E000E036E44D0042AD8900332023263
:101B80000132000E0114066E000E0214076EFE0EE6
:101B90000314086E065007100810D8B40CD0ECD708
:101BA000042A010E0126000E0222000E0322D89004
:101BB000033202320132000E0114066E000E0214CE
:101BC000076EFF0E0314086E065007100810D8B4F5
:101BD00006D0E6D70406D89001360236033602AEA8
:101BE000F9D704A0029ED890043204500312055085
:101BF000D8A4038E01C001F002C002F003C003F0BC
:101C00001200FFFFFFFF19EC11F0E8EC11F08A80E1
:101C1000939045EC11F01EEC03F00001DE0500018D
:101C2000DF11D8A48A80010E0001606F010E00014F
:101C3000616FDEEC10F00A50050A0B10D8A48A8000
:101C4000190E0001FB6F5D0EE82EFED7FB2FFCD7AF
:101C50000001000E0A6E0001FC0E096E84EC11F00A
:101C600009C03AF00AC03BF00BC03CF045EC09F06B
:101C70003A043B10D8A40CD0FCC061F08A707A0EF4
:101C80000001FB6FD40EE82EFED7FB2FFCD700D04F
:101C900033EC0FF07A0E0001FB6FD40EE82EFED766
:101CA000FB2FFCD700D0BFD7FFFF7F0E031402101D
:101CB0000110D8A40FD004C0D9FF05C0DAFF000E70
:101CC000DE6E000EDD6E000E016E000E026E000E66
:101CD000036E33D003507F0B066E076AD89006362A
:101CE000073604C0D9FF05C0DAFF06C0DEFF07C013
:101CF000DDFF02AE03D0066A062A01D0066A06504E
:101D000004C0D9FF05C0DAFFDE12000EDD1204C0E8
:101D1000D9FF05C0DAFF820EDE26FF0EDD2203802A
:101D20000382038403860388038A039C029E01C006
:101D300001F002C002F003C003F01200FFFFFFFF3A
:101D400003AE16D001C007F002C008F003C009F0CE
:101D5000071E081E091E072A000E08220922000E6F
:101D60000724016E000E0820026E800E0920036E0B
:101D700006AE16D004C007F005C008F006C009F092
:101D8000071E081E091E072A000E08220922000E3F
:101D90000724046E000E0820056E800E0920066ED2
:101DA000000E011A000E021A800E031A000E041A09
:101DB000000E051A800E061A0450015C05500258E8
:101DC00006500358D8B002D0D89001D0D880120065
:101DD000FFFFFFFF000E196E8E0E186E1350800A63
:101DE000800F08E1000E125C05E1000E115C02E1BB
:101DF000000E105CD8B011D0131E121E111E106CF4
:101E0000000E112212221322010E196E06D0D89054
:101E10001332123211321032182A000E1014146EBE
:101E2000000E1114156E000E1214166EFF0E131410
:101E3000176E1750141015101610D8A4E8D710C03C
:101E400001F011C002F012C003F018C004F019C074
:101E500005F0ACEC0DF001C010F002C011F003C0B1
:101E600012F01200FFFFFFFF000E056E010E046E60
:101E700004C001F005C002F0050ED890013602360C
:101E8000E82EFBD701C004F002C005F040CF01F0FE
:101E900001B6FCD704C001F0E00E011601C042FFFC
:101EA00005C001F001C002F0036A02C041FF080E44
:101EB000E8CF45FF000160C046FF000161C047FF59
:101EC000000162C048FF000163C049FF000164C017
:101ED0004AFF000165C04BFF000166C04CFF0001D6
:101EE00067C04DFF080EE8CF40FF1200FFFFFFFF65
:101EF000080E936E800EDCEC11F0000E706EBA0EC0
:101F0000716E070E726E000EE8CF18FF000EE8CF5C
:101F100019FF000EE8CF1CFF000EE8CF1DFF000EDA
:101F2000E8CF01FF000EE8CF05FF000EE8CF09FF64
:101F3000000EE8CF0DFF000EE8CF11FF000EE8CF36
:101F400015FF000E606E000EE8CF50FF000EDCECB7
:101F500011F01200FFFFFFFF036E03C0C9FFC6BEF2
:101F60002CD0C6CF02F00F0E02160250080AD8B4C9
:101F70000FD0C6CF02F00F0E021602500B0AD8B4D3
:101F800007D0C6889EA6FED7C7B417D0C75015D0B5
:101F9000C6CF02F00F0E02160250080AD8B408D0BD
:101FA000C6CF02F00F0E021602500B0AD8A405D0BD
:101FB000C7B0FED7F2EC11F0C5501200FFFFFFFFD3
:101FC000036E000EAC6E000EAB6E03B0AC8803A2C5
:101FD00002D0AC8CAB8C03B4AC8E03A602D0AB8821
:101FE00001D0AB8A03A802D0AC8401D0AC949E98F7
:101FF00003AC02D09D8A01D09D9A9E9A03AE02D076
:102000009D8801D09D9801C0AFFFAC8AAB8E949C97
:10201000948EACB8ACBE01D0948C1200FFFFFFFFD1
:102020008E0E116E06D0D8900C320B320A32093265
:10203000112A000E09140D6E000E0A140E6E000E09
:102040000B140F6EFF0E0C14106E10500D100E10AE
:102050000F10D8A4E8D709C001F00AC002F00BC0E5
:1020600003F011C004F0000E056EACEC0DF001C0E1
:1020700009F002C00AF003C00BF01200FFFFFFFFDF
:10208000086EF2EC11F0C580C5B0FED7F2EC11F08D
:1020900008500824ABEC0FF0F2EC11F00450ABEC5C
:1020A0000FF0000E096E0ED0F2EC11F00950010D88
:1020B000F3500624D96EF4500720DA6EDF50ABECF3
:1020C0000FF0092A0550095CD8A0EED7F2EC11F008
:1020D000C584C5B4FED7010E1200FFFFFFFF176EC7
:1020E00017C007F0020E086E000E0A6E180E096E79
:1020F000770E02EC0BF0020AD8A40FD0195018C0CA
:1021000015F0166A15C016F0156A1510136E1650E4
:10211000146E000E146E010E07D0000E146E000E29
:10212000136E000E146E000E136E1200FFFFFFFF01
:10213000000E0C6E0A50800AF36E800EF35C000EE7
:10214000D8B4095CD8B006D0096C0A1ED8B00A2AE7
:10215000010E0C6E09C001F00AC002F0036A8E0E77
:10216000046E0CC005F0ACEC0DF001C009F002C02B
:102170000AF003C00BF01200FFFFFFFF000E026E1B
:10218000000E016E0250800A6D0F880ED8B4015CFB
:10219000D8B012D0000E046E000E036E0450800AF8
:1021A000800F020ED8B4035CD8B003D0034A042ACF
:1021B000F5D7014A022AE6D71200FFFFFFFFF40E0F
:1021C0000C6E2E0E0D6EF40E046E010E056E000EDA
:1021D000076E0D0E066E770E3FEC10F00E6E0E5071
:1021E000D8B404D0000E0B6E050E03D0000E0B6E9B
:1021F000000E0A6E1200FFFFFFFF000E3D1A000ED8
:102200003E1A800E3F1A3AC02EF03BC02FF03CC061
:1022100030F03DC031F03EC032F03FC033F0ACECA6
:1022200007F02EC03AF02FC03BF030C03CF0120057
:10223000FFFFFFFF949C948E000E026E810E016ED4
:102240003C0EDFEC0FF0800E016E080EBDEC11F0BD
:102250000B0EC86E320ECEEC11F01200FFFFFFFF26
:10226000C6CF01F00F0E01160150080AD8B407D0EE
:10227000C6CF01F00F0E011601500B0AD8B4C58667
:10228000C7A0FED7C9501200FFFFFFFF000E066E69
:102290000A0E056E8A80BDEC10F08A90BDEC10F03D
:1022A0000506D8A0060606500510D8B41200FFFF98
:1022B000F1D7FFFFFFFF7F0E2D142C102B10D8B489
:1022C00006D0000E2B1A000E2C1A800E2D1A2BC0D1
:1022D0002BF02CC02CF02DC02DF01200FFFFFFFFC3
:1022E00001500302F3CF05F0F4CF06F001500402D1
:1022F000F350062602500302F350062605C001F0F3
:1023000006C002F01200FFFFFFFF09C001F00AC083
:1023100002F0036A8E0E046E000E056EACEC0DF03A
:1023200001C009F002C00AF003C00BF01200FFFF69
:10233000FFFF0C6E0C50016E026A036A8E0E046E73
:10234000000E056EACEC0DF001C009F002C00AF001
:1023500003C00BF01200FFFF01EE00F0340EEE6A36
:10236000E806FDE100EE60F0730EEE6AE806FDE1BE
:10237000000EF86E000102EF0EF0FFFF026E3F0E3E
:10238000C716000EC66E000EC56E0250C612015072
:10239000C71294869488C68A1200FFFFFFFF026E60
:1023A0000A0E016EBE0EE82EFED7012EFCD700D01D
:1023B000022EF6D71200FFFFFFFF016E01C06FFF74
:1023C0006E50E00B0118D8B41200FFFFF9D7FFFFE1
:1023D000FFFF9394938677EC0FF0320ECEEC11F062
:1023E0001200FFFFFFFFC5CF01F01F0E0116D8B48A
:0A23F000C7B4F9D71200FFFFFFFF8A
:020000040020DA
:08000000FFFFFFFFFFFFFFFF00
:020000040030CA
:04000000FF220E0EBF
:0800060080FF0FC00FE00F4066
:00000001FF
