:0600000000F0A0EF1EF06D
:103CD400FFFFFFFF939493860BEC1FF0320E81ECF1
:103CE4001EF01200FFFFFFFF4A6E4AC06FFF6E50C6
:103CF400E00B4A18D8B41200FFFFF9D7FFFFFFFF0B
:103D04004B6E0A0E4A6EBE0EE82EFED74A2EFCD724
:103D140000D04B2EF6D71200FFFFFFFF4B6E3F0E75
:103D2400C716000EC66E000EC56E4B50C6124A5022
:103D3400C71294869488C68A1200FFFF00EE60F0D2
:103D44001E0EEE6AE806FDE100EE01F0490EEE6A91
:103D5400E806FDE1000EF86E000180EF1FF0FFFFA2
:103D64004C6E000E4E6E000E4D6E4CC04DF04E6A01
:103D74004D504E6E4D6A4A504D124DC04AF04EC0E1
:103D84004BF01200FFFFFFFF949C948E000E4B6ECD
:103D9400810E4A6E3C0EDBEC1EF0800E4A6E080E5D
:103DA4008FEC1EF00B0EC86E320E81EC1EF012006A
:103DB400FFFFFFFF4C6E000EAC6E000EAB6E4CB0FE
:103DC400AC884CA202D0AC8CAB8C4CB4AC8E4CA660
:103DD40002D0AB8801D0AB8A4CA802D0AC8401D00D
:103DE400AC949E984CAC02D09D8A01D09D9A9E9A28
:103DF4004CAE02D09D8801D09D984AC0AFFFAC8ADA
:103E0400AB8E949C948EACB8ACBE01D0948C120052
:103E1400FFFFFFFF080E936E800E75EC1EF0000E80
:103E2400706EBA0E716E070E726E000EE8CF18FF38
:103E3400000EE8CF19FF000EE8CF1CFF000EE8CFFC
:103E44001DFF000EE8CF01FF000EE8CF05FF000EB6
:103E5400E8CF09FF000EE8CF0DFF000EE8CF11FFF9
:103E6400000EE8CF15FF000E606E000EE8CF50FF85
:103E7400000E75EC1EF01200FFFFFFFF000E506EE7
:103E8400000E516E000E4F6E000E4E6E60AEFED7E9
:103E940062CF51F061CF50F066CF01F067CF02F0EE
:103EA40068CF03F069CF04F06ACF05F06BCF06F05A
:103EB4006CCF07F06DCF08F0609E50504C6E4D6A89
:103EC400D8904C364D36D8904C364D36D8904C362A
:103ED4004D364CC04EF04DC04FF051C04CF0050E65
:103EE4004D6ED8904C324D2EFCD74C504E124EC0D5
:103EF4004AF04FC04BF01200FFFFFFFFFFFFC5EC7D
:103F04001EF06BEC1EF09390939293988A808A82B1
:103F14008A889E9A9F9A9D8AF28CF28E3FEC1FF0BB
:103F24004AC057F04BC058F0016612D08A887A0E06
:103F3400526ED40EE82EFED7522EFCD700D08A98AB
:103F44007A0E526ED40EE82EFED7522EFCD754D0E1
:103F54000104D8A4E3D703C05CF004C05DF05DC0E5
:103F64004AF05C50B1EC1EF04AC053F04BC054F020
:103F740005C05CF006C05DF05DC04AF05C50B1EC79
:103F84001EF04AC05AF04BC05BF007C05CF008C09A
:103F94005DF05DC04AF05C50B1EC1EF04AC055F0D3
:103FA4004BC056F002C059F05B50800A800F0B0ED4
:103FB400D8B45A5CD8A016D08A808A828A987A0E9D
:103FC400526ED40EE82EFED7522EFCD700D08A9023
:103FD4008A928A987A0E526ED40EE82EFED7522E0A
:103FE400FCD70AD08A808A828A987A0E526ED40EBE
:0C3FF400E82EFED7522EFCD700D090D74C
:020000040020DA
:08000000FFFFFFFFFFFFFFFF00
:020000040030CA
:04000000FF220E0EBF
:0800060080FF0FC00FE00F4066
:00000001FF
